{
  "_format": "hh-sol-artifact-1",
  "contractName": "Faucet",
  "sourceName": "contracts/Faucet.sol",
  "abi": [
    {
      "inputs": [],
      "name": "addFunds",
      "outputs": [],
      "stateMutability": "payable",
      "type": "function"
    },
    {
      "inputs": [
        {
          "internalType": "address",
          "name": "",
          "type": "address"
        }
      ],
      "name": "funders",
      "outputs": [
        {
          "internalType": "bool",
          "name": "",
          "type": "bool"
        }
      ],
      "stateMutability": "view",
      "type": "function"
    },
    {
      "inputs": [],
      "name": "getAllFunders",
      "outputs": [
        {
          "internalType": "address[]",
          "name": "",
          "type": "address[]"
        }
      ],
      "stateMutability": "view",
      "type": "function"
    },
    {
      "inputs": [
        {
          "internalType": "uint256",
          "name": "index",
          "type": "uint256"
        }
      ],
      "name": "getFundersIndex",
      "outputs": [
        {
          "internalType": "address",
          "name": "",
          "type": "address"
        }
      ],
      "stateMutability": "view",
      "type": "function"
    },
    {
      "inputs": [
        {
          "internalType": "uint256",
          "name": "",
          "type": "uint256"
        }
      ],
      "name": "lutFunders",
      "outputs": [
        {
          "internalType": "address",
          "name": "",
          "type": "address"
        }
      ],
      "stateMutability": "view",
      "type": "function"
    },
    {
      "inputs": [],
      "name": "numOfFunders",
      "outputs": [
        {
          "internalType": "uint256",
          "name": "",
          "type": "uint256"
        }
      ],
      "stateMutability": "view",
      "type": "function"
    },
    {
      "inputs": [
        {
          "internalType": "uint256",
          "name": "amount",
          "type": "uint256"
        }
      ],
      "name": "withdraw",
      "outputs": [],
      "stateMutability": "payable",
      "type": "function"
    },
    {
      "stateMutability": "payable",
      "type": "receive"
    }
  ],
  "bytecode": "0x608060405234801561001057600080fd5b506108dd806100206000396000f3fe6080604052600436106100745760003560e01c80632e1a7d4d1161004e5780632e1a7d4d146101375780636fbbb55d14610153578063a26759cb1461017e578063af7f2c9b146101885761007b565b8063031b3677146100805780631f8947ea146100bd5780632e1472de146100fa5761007b565b3661007b57005b600080fd5b34801561008c57600080fd5b506100a760048036038101906100a2919061055b565b6101b3565b6040516100b491906105a3565b60405180910390f35b3480156100c957600080fd5b506100e460048036038101906100df91906105f4565b6101d3565b6040516100f19190610630565b60405180910390f35b34801561010657600080fd5b50610121600480360381019061011c91906105f4565b610206565b60405161012e9190610630565b60405180910390f35b610151600480360381019061014c91906105f4565b610243565b005b34801561015f57600080fd5b506101686102da565b6040516101759190610709565b60405180910390f35b6101866103d3565b005b34801561019457600080fd5b5061019d6104f2565b6040516101aa919061073a565b60405180910390f35b60026020528060005260406000206000915054906101000a900460ff1681565b60016020528060005260406000206000915054906101000a900473ffffffffffffffffffffffffffffffffffffffff1681565b60006001600083815260200190815260200160002060009054906101000a900473ffffffffffffffffffffffffffffffffffffffff169050919050565b80670de0b6b3a764000081111561028f576040517f08c379a0000000000000000000000000000000000000000000000000000000008152600401610286906107b2565b60405180910390fd5b3373ffffffffffffffffffffffffffffffffffffffff166108fc839081150290604051600060405180830381858888f193505050501580156102d5573d6000803e3d6000fd5b505050565b60606000805467ffffffffffffffff8111156102f9576102f86107d2565b5b6040519080825280602002602001820160405280156103275781602001602082028036833780820191505090505b50905060005b6000548110156103cb576001600082815260200190815260200160002060009054906101000a900473ffffffffffffffffffffffffffffffffffffffff1682828151811061037e5761037d610801565b5b602002602001019073ffffffffffffffffffffffffffffffffffffffff16908173ffffffffffffffffffffffffffffffffffffffff168152505080806103c39061085f565b91505061032d565b508091505090565b6000339050600260008273ffffffffffffffffffffffffffffffffffffffff1673ffffffffffffffffffffffffffffffffffffffff16815260200190815260200160002060009054906101000a900460ff166104ef57600080600081548092919061043d9061085f565b9190505590506001600260008473ffffffffffffffffffffffffffffffffffffffff1673ffffffffffffffffffffffffffffffffffffffff16815260200190815260200160002060006101000a81548160ff021916908315150217905550816001600083815260200190815260200160002060006101000a81548173ffffffffffffffffffffffffffffffffffffffff021916908373ffffffffffffffffffffffffffffffffffffffff160217905550505b50565b60005481565b600080fd5b600073ffffffffffffffffffffffffffffffffffffffff82169050919050565b6000610528826104fd565b9050919050565b6105388161051d565b811461054357600080fd5b50565b6000813590506105558161052f565b92915050565b600060208284031215610571576105706104f8565b5b600061057f84828501610546565b91505092915050565b60008115159050919050565b61059d81610588565b82525050565b60006020820190506105b86000830184610594565b92915050565b6000819050919050565b6105d1816105be565b81146105dc57600080fd5b50565b6000813590506105ee816105c8565b92915050565b60006020828403121561060a576106096104f8565b5b6000610618848285016105df565b91505092915050565b61062a8161051d565b82525050565b60006020820190506106456000830184610621565b92915050565b600081519050919050565b600082825260208201905092915050565b6000819050602082019050919050565b6106808161051d565b82525050565b60006106928383610677565b60208301905092915050565b6000602082019050919050565b60006106b68261064b565b6106c08185610656565b93506106cb83610667565b8060005b838110156106fc5781516106e38882610686565b97506106ee8361069e565b9250506001810190506106cf565b5085935050505092915050565b6000602082019050818103600083015261072381846106ab565b905092915050565b610734816105be565b82525050565b600060208201905061074f600083018461072b565b92915050565b600082825260208201905092915050565b7f43616e6e6f74207769746864726177206d6f7265207468616e20314554480000600082015250565b600061079c601e83610755565b91506107a782610766565b602082019050919050565b600060208201905081810360008301526107cb8161078f565b9050919050565b7f4e487b7100000000000000000000000000000000000000000000000000000000600052604160045260246000fd5b7f4e487b7100000000000000000000000000000000000000000000000000000000600052603260045260246000fd5b7f4e487b7100000000000000000000000000000000000000000000000000000000600052601160045260246000fd5b600061086a826105be565b91507fffffffffffffffffffffffffffffffffffffffffffffffffffffffffffffffff820361089c5761089b610830565b5b60018201905091905056fea2646970667358221220390074fcbed99c2a3e0722f09c9b946bd1ca81665a4c13b268613fc1be71c1bc64736f6c63430008130033",
  "linkReferences": {},
  "deployedLinkReferences": {}
}